{
  "contractName": "KeyTheft",
  "abi": [
    {
      "inputs": [],
      "payable": true,
      "stateMutability": "payable",
      "type": "constructor",
      "signature": "constructor"
    },
    {
      "constant": false,
      "inputs": [],
      "name": "init",
      "outputs": [],
      "payable": false,
      "stateMutability": "nonpayable",
      "type": "function",
      "signature": "0xe1c7392a"
    },
    {
      "constant": false,
      "inputs": [
        {
          "name": "pubKey",
          "type": "bytes[2]"
        },
        {
          "name": "tend",
          "type": "uint256"
        }
      ],
      "name": "Create",
      "outputs": [],
      "payable": true,
      "stateMutability": "payable",
      "type": "function",
      "signature": "0x17f2e219"
    },
    {
      "constant": false,
      "inputs": [
        {
          "name": "commitment",
          "type": "bytes32"
        }
      ],
      "name": "intent",
      "outputs": [],
      "payable": false,
      "stateMutability": "nonpayable",
      "type": "function",
      "signature": "0x2c8d40e7"
    },
    {
      "constant": false,
      "inputs": [
        {
          "name": "ct",
          "type": "bytes"
        },
        {
          "name": "r",
          "type": "bytes"
        },
        {
          "name": "a",
          "type": "uint256[2]"
        },
        {
          "name": "b",
          "type": "uint256[2][2]"
        },
        {
          "name": "c",
          "type": "uint256[2]"
        },
        {
          "name": "input",
          "type": "uint256[4]"
        }
      ],
      "name": "claim",
      "outputs": [],
      "payable": false,
      "stateMutability": "nonpayable",
      "type": "function",
      "signature": "0x3b964357"
    },
    {
      "constant": false,
      "inputs": [
        {
          "name": "revokedKeys1",
          "type": "bytes[]"
        },
        {
          "name": "revokedKeys2",
          "type": "bytes[]"
        }
      ],
      "name": "revoke",
      "outputs": [],
      "payable": false,
      "stateMutability": "nonpayable",
      "type": "function",
      "signature": "0x26423745"
    },
    {
      "constant": false,
      "inputs": [],
      "name": "timer",
      "outputs": [],
      "payable": false,
      "stateMutability": "nonpayable",
      "type": "function",
      "signature": "0x88c9cb3c"
    },
    {
      "constant": true,
      "inputs": [
        {
          "name": "ct",
          "type": "bytes"
        },
        {
          "name": "r",
          "type": "bytes"
        }
      ],
      "name": "MakeIntent",
      "outputs": [
        {
          "name": "",
          "type": "bytes32"
        }
      ],
      "payable": false,
      "stateMutability": "pure",
      "type": "function",
      "signature": "0x7b839479"
    },
    {
      "constant": true,
      "inputs": [],
      "name": "GetTime",
      "outputs": [
        {
          "name": "",
          "type": "uint256"
        }
      ],
      "payable": false,
      "stateMutability": "view",
      "type": "function",
      "signature": "0x18c5e502"
    }
  ],
  "bytecode": "0x6080604052611388602881905550604080519081016040528060408051908101604052807f1f6a6036b6e03208032a7134481379ddcc61af4712987489aa61d49c681c642981526020017f0e4d68a7c445943f90e851c42fd5d823f8cacc099d9e4650123fb054e629d018815250815260200160408051908101604052807f2d52f866287d977b5191642b830ce3855a38d929d9488f8a1a8db04c55850a9b81526020017e7ca457d1688c418a4da106f03d0454d6b174427ee2376944eb7c8470261c8b81525081525060008001906002620000dd92919062000577565b5060408051908101604052807f206e47bbcc3b1abce1d41019fd23f0281366b4de7dabc8e7b851278cfd27dc0781526020017f20b9ec36d27325d141c4248984552377a44be05685710f04bcd1bc3281fd0d71815250600060040190600262000148929190620005ce565b50604080519081016040528060408051908101604052807f1243e00f57bd7922e87bd2039e27f38bf3a9aa2a99d63fb808fc1fdcb2a8d3f881526020017f022bcdfd238618b9b7fcaf2f76864cccd64ef7acfafb38e0380ee4d1536733dc815250815260200160408051908101604052807f0166392d6003ab584793e2c6e9d6e51c89f7fe9df81073c9a9560a2778d3566f81526020017f04d4131d730a84b8406634a488224e5035922dd211f22b8efe4d0c0024b277f981525081525060006006019060026200021b92919062000577565b5060408051908101604052807f13dc96e609e4ef378244e7a1c24a3f14d111cee7f3716eef42480b7a11dcf4a981526020017f1fe8597df989f8c5e1113f07f895253c604d8dbea24fef6de8463c59b1182a368152506000600a0190600262000286929190620005ce565b50604080519081016040528060408051908101604052807f0a45b94f15d0ade9fe6d445167c84a73af1c67f642b77bfaf2bc721622c4b7a181526020017f22ac7e1436c3a496c56f02834f47fb375d1fe065720790053bdad229a707e9d5815250815260200160408051908101604052807f192caaf71e893c17f520115c255973ede1585ed03e0e70d1ae1b0e03326887e681526020017f01df7ead07969aae67871c957fcbf771993a84e6946e8eb0a2ac929698c61f348152508152506000600c019060026200035992919062000577565b5060408051908101604052807f132f9a65546faca0c6cd90aaa3c6a50632f66a9706f3a1a94f147a497a246c9581526020017f06f5b728dc8d3121615fc6735091d86f807e432b55eb590a83cd0923c2a31b5d8152506000601001906002620003c4929190620005ce565b5060408051908101604052807f05b803867d09213e7eafb04d7cbd06dcbbc30ec146296541a4c570c1b373d7d481526020017f03cb7b16f8bc88655b6e1264207c99d6b37a391d25228be4e7696b5ab0b1ad3d81525060006012019060026200042f929190620005ce565b5060408051908101604052807f2d9baaf742cd91040e3cd5513cb22ac3900888bbbf5fec46cc74465451c2802c81526020017f2507890328edc46335c0c32b86cb3bfb2f5423c3758493016558e89893476d4681525060006014019060026200049a929190620005ce565b5060408051908101604052807f2f69e1c90b951f4c85526a062adcf782026e0429aa1222ae7f4229ce5aa9a30b81526020017f1ace5f0cbe5376a6290d13c22186a8ea98893f76cbd89b816758dcc31ddb376b815250600060160190600262000505929190620005ce565b5060408051908101604052807f05271a3c626f93e28b981b2572511e1043b613ff04bf1957a240ad453a3d82d481526020017f026b81aa88d08aa7e0e22329e0e5867736395ea13855c834814544543e8aa65b815250600060180190600262000570929190620005ce565b50620006bf565b82600280028101928215620005bb579160200282015b82811115620005ba57825182906002620005a992919062000613565b50916020019190600201906200058d565b5b509050620005ca919062000658565b5090565b826002810192821562000600579160200282015b82811115620005ff578251825591602001919060010190620005e2565b5b5090506200060f919062000689565b5090565b826002810192821562000645579160200282015b828111156200064457825182559160200191906001019062000627565b5b50905062000654919062000689565b5090565b6200068691905b80821115620006825760008181620006789190620006b1565b506002016200065f565b5090565b90565b620006ae91905b80821115620006aa57600081600090555060010162000690565b5090565b90565b506000815560010160009055565b611d1a80620006cf6000396000f3fe60806040526004361061008e576000357c0100000000000000000000000000000000000000000000000000000000900463ffffffff16806317f2e2191461009357806318c5e502146100af57806326423745146100da5780632c8d40e7146101035780633b9643571461012c5780637b8394791461015557806388c9cb3c14610192578063e1c7392a146101a9575b600080fd5b6100ad60048036036100a89190810190611551565b6101c0565b005b3480156100bb57600080fd5b506100c461030d565b6040516100d19190611b37565b60405180910390f35b3480156100e657600080fd5b5061010160048036036100fc91908101906115a5565b610315565b005b34801561010f57600080fd5b5061012a60048036036101259190810190611611565b610886565b005b34801561013857600080fd5b50610153600480360361014e91908101906116a6565b610999565b005b34801561016157600080fd5b5061017c6004803603610177919081019061163a565b610b8e565b6040516101899190611a1c565b60405180910390f35b34801561019e57600080fd5b506101a7610ba2565b005b3480156101b557600080fd5b506101be610cf5565b005b61138834111515610206576040517f08c379a00000000000000000000000000000000000000000000000000000000081526004016101fd90611ad7565b60405180910390fd5b602660009054906101000a900473ffffffffffffffffffffffffffffffffffffffff1673ffffffffffffffffffffffffffffffffffffffff163373ffffffffffffffffffffffffffffffffffffffff16141515610298576040517f08c379a000000000000000000000000000000000000000000000000000000000815260040161028f90611a37565b60405180910390fd5b600080602b541415156102e0576040517f08c379a00000000000000000000000000000000000000000000000000000000081526004016102d790611ab7565b60405180910390fd5b8260299060026102f1929190610f05565b5081602a81905550346027819055506001602b81905550505050565b600042905090565b8051825114151561035b576040517f08c379a000000000000000000000000000000000000000000000000000000000815260040161035290611b17565b60405180910390fd5b600080905060008090505b6000151581151514801561037a5750835182105b1561071a576060848381518110151561038f57fe5b906020019060200201519050606084848151811015156103ab57fe5b9060200190602002015190506060602960008154811015156103c957fe5b906000526020600020018054600181600116156101000203166002900480601f0160208091040260200160405190810160405280929190818152602001828054600181600116156101000203166002900480156104675780601f1061043c57610100808354040283529160200191610467565b820191906000526020600020905b81548152906001019060200180831161044a57829003601f168201915b5050505050905060606029600181548110151561048057fe5b906000526020600020018054600181600116156101000203166002900480601f01602080910402602001604051908101604052809291908181526020018280546001816001161561010002031660029004801561051e5780601f106104f35761010080835404028352916020019161051e565b820191906000526020600020905b81548152906001019060200180831161050157829003601f168201915b50505050509050816040516020018082805190602001908083835b60208310151561055e5780518252602082019150602081019050602083039250610539565b6001836020036101000a03801982511681845116808217855250505050505090500191505060405160208183030381529060405280519060200120846040516020018082805190602001908083835b6020831015156105d257805182526020820191506020810190506020830392506105ad565b6001836020036101000a038019825116818451168082178552505050505050905001915050604051602081830303815290604052805190602001201480156106ff5750806040516020018082805190602001908083835b60208310151561064e5780518252602082019150602081019050602083039250610629565b6001836020036101000a03801982511681845116808217855250505050505090500191505060405160208183030381529060405280519060200120836040516020018082805190602001908083835b6020831015156106c2578051825260208201915060208101905060208303925061069d565b6001836020036101000a03801982511681845116808217855250505050505090500191505060405160208183030381529060405280519060200120145b1561070957600194505b858060010196505050505050610366565b60001515811515141561072c57600080fd5b3373ffffffffffffffffffffffffffffffffffffffff166108fc6028549081150290604051600060405180830381858888f19350505050158015610774573d6000803e3d6000fd5b506002602b541415610808576000602e5442039050602c60000160009054906101000a900473ffffffffffffffffffffffffffffffffffffffff1673ffffffffffffffffffffffffffffffffffffffff166108fc826027548115156107d557fe5b049081150290604051600060405180830381858888f19350505050158015610801573d6000803e3d6000fd5b5050610878565b602660009054906101000a900473ffffffffffffffffffffffffffffffffffffffff1673ffffffffffffffffffffffffffffffffffffffff166108fc602854602754039081150290604051600060405180830381858888f19350505050158015610876573d6000803e3d6000fd5b505b6003602b8190555050505050565b600180602b541415156108ce576040517f08c379a00000000000000000000000000000000000000000000000000000000081526004016108c590611ab7565b60405180910390fd5b60001515602c60000160149054906101000a900460ff161515141515610929576040517f08c379a000000000000000000000000000000000000000000000000000000000815260040161092090611a57565b60405180910390fd5b33602c60000160006101000a81548173ffffffffffffffffffffffffffffffffffffffff021916908373ffffffffffffffffffffffffffffffffffffffff1602179055506001602c60000160146101000a81548160ff02191690831515021790555081602c600101819055505050565b600180602b541415156109e1576040517f08c379a00000000000000000000000000000000000000000000000000000000081526004016109d890611ab7565b60405180910390fd5b60011515602c60000160149054906101000a900460ff161515141515610a3c576040517f08c379a0000000000000000000000000000000000000000000000000000000008152600401610a3390611a97565b60405180910390fd5b3373ffffffffffffffffffffffffffffffffffffffff16602c60000160009054906101000a900473ffffffffffffffffffffffffffffffffffffffff1673ffffffffffffffffffffffffffffffffffffffff16141515610ad1576040517f08c379a0000000000000000000000000000000000000000000000000000000008152600401610ac890611af7565b60405180910390fd5b6000610add8789610d40565b9050602c6001015481141515610b28576040517f08c379a0000000000000000000000000000000000000000000000000000000008152600401610b1f90611a77565b60405180910390fd5b85601a600001906002610b3c929190610f65565b5084601a600201906002610b51929190610fa5565b5083601a600601906002610b66929190610f65565b5082601a600801906004610b7b929190610ff5565b506002602b819055505050505050505050565b6000610b9a8284610d40565b905092915050565b600280602b54141515610bea576040517f08c379a0000000000000000000000000000000000000000000000000000000008152600401610be190611ab7565b60405180910390fd5b602e5442036103e81015610c7357602c60000160009054906101000a900473ffffffffffffffffffffffffffffffffffffffff1673ffffffffffffffffffffffffffffffffffffffff166108fc6027549081150290604051600060405180830381858888f19350505050158015610c65573d6000803e3d6000fd5b506003602b81905550610cf2565b602a54421115610cf157602660009054906101000a900473ffffffffffffffffffffffffffffffffffffffff1673ffffffffffffffffffffffffffffffffffffffff166108fc6027549081150290604051600060405180830381858888f19350505050158015610ce7573d6000803e3d6000fd5b506003602b819055505b5b50565b33602660006101000a81548173ffffffffffffffffffffffffffffffffffffffff021916908373ffffffffffffffffffffffffffffffffffffffff1602179055506000602b81905550565b600080600080604086511115610d5f5785805190602001209250610de6565b600090505b855181108015610d745750602081105b15610da257600081870151905081601f0360080260020a810260010284179350508080600101915050610d64565b602090505b855181108015610db75750604081105b15610de557600081870151905081603f0360080260020a810260010283179250508080600101915050610da7565b5b60007f3636363636363636363636363636363636363636363636363636363636363636600102905060007f5c5c5c5c5c5c5c5c5c5c5c5c5c5c5c5c5c5c5c5c5c5c5c5c5c5c5c5c5c5c5c5c60010290508481188482188684188685188a6040516020018084815260200183815260200182805190602001908083835b602083101515610e875780518252602082019150602081019050602083039250610e62565b6001836020036101000a038019825116818451168082178552505050505050905001935050505060405160208183030381529060405280519060200120604051602001808481526020018381526020018281526020019350505050604051602081830303815290604052805190602001209550505050505092915050565b828054828255906000526020600020908101928215610f54579160200282015b82811115610f53578251829080519060200190610f43929190611035565b5091602001919060010190610f25565b5b509050610f6191906110b5565b5090565b8260028101928215610f94579160200282015b82811115610f93578251825591602001919060010190610f78565b5b509050610fa191906110e1565b5090565b82600280028101928215610fe4579160200282015b82811115610fe357825182906002610fd3929190611106565b5091602001919060020190610fba565b5b509050610ff19190611146565b5090565b8260048101928215611024579160200282015b82811115611023578251825591602001919060010190611008565b5b50905061103191906110e1565b5090565b828054600181600116156101000203166002900490600052602060002090601f016020900481019282601f1061107657805160ff19168380011785556110a4565b828001600101855582156110a4579182015b828111156110a3578251825591602001919060010190611088565b5b5090506110b191906110e1565b5090565b6110de91905b808211156110da57600081816110d19190611172565b506001016110bb565b5090565b90565b61110391905b808211156110ff5760008160009055506001016110e7565b5090565b90565b8260028101928215611135579160200282015b82811115611134578251825591602001919060010190611119565b5b50905061114291906110e1565b5090565b61116f91905b8082111561116b576000818161116291906111ba565b5060020161114c565b5090565b90565b50805460018160011615610100020316600290046000825580601f1061119857506111b7565b601f0160209004906000526020600020908101906111b691906110e1565b5b50565b506000815560010160009055565b600082601f83011215156111db57600080fd5b60026111ee6111e982611b7f565b611b52565b9150818385604084028201111561120457600080fd5b60005b83811015611234578161121a888261131b565b845260208401935060408301925050600181019050611207565b5050505092915050565b600082601f830112151561125157600080fd5b600261126461125f82611ba1565b611b52565b9150818360005b8381101561129b57813586016112818882611491565b84526020840193506020830192505060018101905061126b565b5050505092915050565b600082601f83011215156112b857600080fd5b81356112cb6112c682611bc3565b611b52565b9150818183526020840193506020810190508360005b8381101561131157813586016112f78882611491565b8452602084019350602083019250506001810190506112e1565b5050505092915050565b600082601f830112151561132e57600080fd5b600261134161133c82611beb565b611b52565b9150818385602084028201111561135757600080fd5b60005b83811015611387578161136d888261153d565b84526020840193506020830192505060018101905061135a565b5050505092915050565b600082601f83011215156113a457600080fd5b60026113b76113b282611c0d565b611b52565b915081838560208402820111156113cd57600080fd5b60005b838110156113fd57816113e3888261153d565b8452602084019350602083019250506001810190506113d0565b5050505092915050565b600082601f830112151561141a57600080fd5b600461142d61142882611c2f565b611b52565b9150818385602084028201111561144357600080fd5b60005b838110156114735781611459888261153d565b845260208401935060208301925050600181019050611446565b5050505092915050565b60006114898235611cbd565b905092915050565b600082601f83011215156114a457600080fd5b81356114b76114b282611c51565b611b52565b915080825260208301602083018583830111156114d357600080fd5b6114de838284611cd1565b50505092915050565b600082601f83011215156114fa57600080fd5b813561150d61150882611c7d565b611b52565b9150808252602083016020830185838301111561152957600080fd5b611534838284611cd1565b50505092915050565b60006115498235611cc7565b905092915050565b6000806040838503121561156457600080fd5b600083013567ffffffffffffffff81111561157e57600080fd5b61158a8582860161123e565b925050602061159b8582860161153d565b9150509250929050565b600080604083850312156115b857600080fd5b600083013567ffffffffffffffff8111156115d257600080fd5b6115de858286016112a5565b925050602083013567ffffffffffffffff8111156115fb57600080fd5b611607858286016112a5565b9150509250929050565b60006020828403121561162357600080fd5b60006116318482850161147d565b91505092915050565b6000806040838503121561164d57600080fd5b600083013567ffffffffffffffff81111561166757600080fd5b611673858286016114e7565b925050602083013567ffffffffffffffff81111561169057600080fd5b61169c858286016114e7565b9150509250929050565b6000806000806000806101c087890312156116c057600080fd5b600087013567ffffffffffffffff8111156116da57600080fd5b6116e689828a016114e7565b965050602087013567ffffffffffffffff81111561170357600080fd5b61170f89828a016114e7565b955050604061172089828a01611391565b945050608061173189828a016111c8565b93505061010061174389828a01611391565b92505061014061175589828a01611407565b9150509295509295509295565b61176b81611ca9565b82525050565b6000602a82527f46756e6374696f6e2063616e206f6e6c7920626520696e766f6b65642062792060208301527f636f6e74726163746f72000000000000000000000000000000000000000000006040830152606082019050919050565b6000601f82527f5065727065747261746f7220616c72656164792073656e7420696e74656e74006020830152604082019050919050565b6000603782527f54686520636f6d6d69746d656e7420666f72207468697320636c61696d20646f60208301527f6573206e6f74206d617463682074686520696e74656e740000000000000000006040830152606082019050919050565b6000602782527f5065727065747261746f7220646964206e6f7420616c72656164792073656e6460208301527f20696e74656e74000000000000000000000000000000000000000000000000006040830152606082019050919050565b6000602482527f436f6e7472616374206973206e6f7420696e2074686520636f7272656374207360208301527f74617465000000000000000000000000000000000000000000000000000000006040830152606082019050919050565b6000602c82527f526577617264206d7573742062652067726561746572207468616e207468652060208301527f736d616c6c2072657761726400000000000000000000000000000000000000006040830152606082019050919050565b6000601b82527f54686973206973206e6f7420746865207065727065747261746f7200000000006020830152604082019050919050565b6000603782527f7265766f6b65644b6579733120616e64207265766f6b65644b6579733220736860208301527f6f756c6420626520657175616c20696e206c656e6774680000000000000000006040830152606082019050919050565b611a1681611cb3565b82525050565b6000602082019050611a316000830184611762565b92915050565b60006020820190508181036000830152611a5081611771565b9050919050565b60006020820190508181036000830152611a70816117ce565b9050919050565b60006020820190508181036000830152611a9081611805565b9050919050565b60006020820190508181036000830152611ab081611862565b9050919050565b60006020820190508181036000830152611ad0816118bf565b9050919050565b60006020820190508181036000830152611af08161191c565b9050919050565b60006020820190508181036000830152611b1081611979565b9050919050565b60006020820190508181036000830152611b30816119b0565b9050919050565b6000602082019050611b4c6000830184611a0d565b92915050565b6000604051905081810181811067ffffffffffffffff82111715611b7557600080fd5b8060405250919050565b600067ffffffffffffffff821115611b9657600080fd5b602082029050919050565b600067ffffffffffffffff821115611bb857600080fd5b602082029050919050565b600067ffffffffffffffff821115611bda57600080fd5b602082029050602081019050919050565b600067ffffffffffffffff821115611c0257600080fd5b602082029050919050565b600067ffffffffffffffff821115611c2457600080fd5b602082029050919050565b600067ffffffffffffffff821115611c4657600080fd5b602082029050919050565b600067ffffffffffffffff821115611c6857600080fd5b601f19601f8301169050602081019050919050565b600067ffffffffffffffff821115611c9457600080fd5b601f19601f8301169050602081019050919050565b6000819050919050565b6000819050919050565b6000819050919050565b6000819050919050565b8281833760008383015250505056fea265627a7a7230582047de6f3875b4903ab2d1a012f4b2e9e720cb9508e449707b0e54e0ed49c2f47b6c6578706572696d656e74616cf50037",
  "source": "/*\r\n{\r\n\t\"proof\":\r\n\t{\r\n\t\t\"A\":[\"0x2ee1d7ecd571a13bf7384db25e40a52b0e96dd5212188269c53e3bc898b27b4e\", \"0x2adb91e740459fe137387cc0c33574d997686c5cdd0d8f391e5eeb0a3fa9249b\"],\r\n\t\t\"B\":\r\n\t\t\t[[\"0x1a20c5d9a884a60da465920519673efe4ea02063dde181a52533e6761d9a3bc2\", \"0x1a83d0b4d7fa0c09c26f67d73faee0758c1260c6644291cd2c725d42bbf49ddb\"], [\"0x03cbf9d757acda3ff9a120e97b9e0e2fb8c1ea2be532e0a9a21262ee2941616a\", \"0x2ebe24ed81fac8f6bc5de7717d72da6c781b84acefd995db2cd5676e9ce2dd46\"]],\r\n\t\t\r\n\t\t\"C\":[\"0x1fc53f2db23b2c03c6a75f7fa3988600d042ddd91f64b6d757888d834a6786f8\", \"0x2291034cc586cd083ad298a69c27c830a6c19f5f81c8867c359fa618eb1bf4c8\"],\r\n\t},\r\n\t\"input\":[\"0x1372871792bc1de9cdd1a2cd4d970a650667d03afa3a97203b80880a95704b9a\",\"0x209155e1158b32899c8f7c19f40c07c26aaf85eef95695074b8f62e5829361c1\",\"0x000000000000000000000000a0f78e4dde0f398130591e53e6a13ec3e19d6b7b\",\"0x0000000000000000000000000000000000000000000000000000000000000001\"]\r\n}\r\n\r\n*/\r\n\r\npragma solidity >=0.4.24 <0.6.0;\r\npragma experimental ABIEncoderV2;\r\n\r\n/**\r\n * Contract to post public keys that the contractor is looking for, and a perpetrator steals the key (off chain)\r\n * and gives it to the contractor in exchange for money\r\n * \r\n * Assumptions: \r\n * - The keys pairs are keys generated for eddsa \r\n * - The keys are verified for correctness off chain (by the zk-snark code)\r\n */\r\ncontract KeyTheft {\r\n    \r\n    // struct to store information about the perpetrator \r\n    struct p {\r\n        \r\n        // perpetrators payable address\r\n        address payable perpAddress;\r\n\r\n        // flag if the intent has already been sent \r\n        bool sentIntent;\r\n        \r\n        // the perpetrators commit \r\n        bytes32 commit;\r\n    }\r\n    \r\n    // A struct for our proof of work used to validate the key. Parameters are stored on chain \r\n    // generated from out zk-snark \r\n    struct Proof {\r\n        uint[2] a;\r\n        uint[2][2] b;\r\n        uint[2] c;\r\n        uint[4] input;\r\n    }\r\n    \r\n    // A struct to store the verifiying key from our proof of work\r\n    struct VerifyingKey {\r\n        uint256[2][2] h;\r\n        uint256[2] galpha;\r\n        uint256[2][2] hbeta;\r\n        uint256[2] ggamma;\r\n        uint256[2][2] hgamma;\r\n        uint256[2] query0;\r\n        uint256[2] query1;\r\n        uint256[2] query2;\r\n        uint256[2] query3;\r\n        uint256[2] query4;\r\n    }\r\n\r\n    // the verifying key values (hardcoded in constructor since its always the same)\r\n    VerifyingKey verifyingKey; \r\n    \r\n    // the users parameters from the valid zk-snark proof \r\n    Proof verificationParams;\r\n    \r\n    // the contractors address \r\n    address payable contractor;\r\n    \r\n    // the reward that the contractor sets \r\n    uint256 reward;\r\n    \r\n    // the small reward if a user finds a revoked key\r\n    uint256 smallReward;\r\n    \r\n    // The public key of the private key the contractor is looking for \r\n    bytes[] publicKey;\r\n    \r\n    // the timeout of the contract \r\n    uint256 tEnd;\r\n    \r\n    // the state that the contract is in \r\n    uint state; //init = 0, created = 1, claimed = 2, aborted = 3\r\n   \r\n    // the perpetrator\r\n    p perpetrator;\r\n    \r\n    // the time since the last successful claim \r\n    uint256 timeSinceClaim;\r\n    \r\n    /**\r\n     * Checks if the caller of the function is the contractor\r\n     */\r\n    modifier isContractor() {\r\n        require(msg.sender == contractor, \"Function can only be invoked by contractor\");\r\n        _;\r\n    }\r\n    \r\n    /**\r\n     * Checks if the reward is greater than the hardcoded small reward\r\n     */\r\n    modifier assertReward() {\r\n        require(msg.value > 5000, \"Reward must be greater than the small reward\");\r\n        _;\r\n    }\r\n    \r\n    /**\r\n     * Asserts the state of the Contract\r\n     */\r\n    modifier assertState(uint stateNum) {\r\n        require (state == stateNum, \"Contract is not in the correct state\");\r\n        _;\r\n    }\r\n    \r\n    /** \r\n     * Asserts that the perpetrator has not sent the intent yet \r\n     */\r\n    modifier assertPerpetrator() {\r\n        require(perpetrator.sentIntent == false, \"Perpetrator already sent intent\");\r\n        _;\r\n    }\r\n    \r\n    /**\r\n     * Checks if the invoker is the perpetrator\r\n     */\r\n    modifier isPerpetrator() {\r\n        require(perpetrator.perpAddress == msg.sender, \"This is not the perpetrator\");\r\n        _;\r\n    }\r\n    \r\n    \r\n    /**\r\n     * Asserts that the perpetrator has not sent the intent yet\r\n     */\r\n    modifier assertPerpetratorIntent() {\r\n        require(perpetrator.sentIntent == true, \"Perpetrator did not already send intent\");\r\n        _;\r\n    }\r\n    \r\n    /**\r\n     * Instantiates the contract instance\r\n     */\r\n    constructor() public payable {\r\n        \r\n        // hard codes the small reward \r\n        smallReward = 5000;\r\n    \r\n        // hard codes the verifying key for our zk-snark. This will be the same for every contract that uses are proof \r\n        verifyingKey.h = [[uint256(0x1f6a6036b6e03208032a7134481379ddcc61af4712987489aa61d49c681c6429), uint256(0x0e4d68a7c445943f90e851c42fd5d823f8cacc099d9e4650123fb054e629d018)], [uint256(0x2d52f866287d977b5191642b830ce3855a38d929d9488f8a1a8db04c55850a9b), uint256(0x07ca457d1688c418a4da106f03d0454d6b174427ee2376944eb7c8470261c8b)]];\r\n        verifyingKey.galpha = [uint256(0x206e47bbcc3b1abce1d41019fd23f0281366b4de7dabc8e7b851278cfd27dc07), uint256(0x20b9ec36d27325d141c4248984552377a44be05685710f04bcd1bc3281fd0d71)];\r\n        verifyingKey.hbeta = [[uint256(0x1243e00f57bd7922e87bd2039e27f38bf3a9aa2a99d63fb808fc1fdcb2a8d3f8), uint256(0x022bcdfd238618b9b7fcaf2f76864cccd64ef7acfafb38e0380ee4d1536733dc)], [uint256(0x0166392d6003ab584793e2c6e9d6e51c89f7fe9df81073c9a9560a2778d3566f), uint256(0x04d4131d730a84b8406634a488224e5035922dd211f22b8efe4d0c0024b277f9)]];\r\n        verifyingKey.ggamma = [uint256(0x13dc96e609e4ef378244e7a1c24a3f14d111cee7f3716eef42480b7a11dcf4a9), uint256(0x1fe8597df989f8c5e1113f07f895253c604d8dbea24fef6de8463c59b1182a36)];\r\n        verifyingKey.hgamma = [[uint256(0x0a45b94f15d0ade9fe6d445167c84a73af1c67f642b77bfaf2bc721622c4b7a1), uint256(0x22ac7e1436c3a496c56f02834f47fb375d1fe065720790053bdad229a707e9d5)], [uint256(0x192caaf71e893c17f520115c255973ede1585ed03e0e70d1ae1b0e03326887e6), uint256(0x01df7ead07969aae67871c957fcbf771993a84e6946e8eb0a2ac929698c61f34)]];\r\n        verifyingKey.query0 = [uint256(0x132f9a65546faca0c6cd90aaa3c6a50632f66a9706f3a1a94f147a497a246c95), uint256(0x06f5b728dc8d3121615fc6735091d86f807e432b55eb590a83cd0923c2a31b5d)];\r\n        verifyingKey.query1 = [uint256(0x05b803867d09213e7eafb04d7cbd06dcbbc30ec146296541a4c570c1b373d7d4), uint256(0x03cb7b16f8bc88655b6e1264207c99d6b37a391d25228be4e7696b5ab0b1ad3d)];\r\n        verifyingKey.query2 = [uint256(0x2d9baaf742cd91040e3cd5513cb22ac3900888bbbf5fec46cc74465451c2802c), uint256(0x2507890328edc46335c0c32b86cb3bfb2f5423c3758493016558e89893476d46)];\r\n        verifyingKey.query3 = [uint256(0x2f69e1c90b951f4c85526a062adcf782026e0429aa1222ae7f4229ce5aa9a30b), uint256(0x1ace5f0cbe5376a6290d13c22186a8ea98893f76cbd89b816758dcc31ddb376b)];\r\n        verifyingKey.query4 = [uint256(0x05271a3c626f93e28b981b2572511e1043b613ff04bf1957a240ad453a3d82d4), uint256(0x026b81aa88d08aa7e0e22329e0e5867736395ea13855c834814544543e8aa65b)];\r\n    }\r\n    \r\n    /**\r\n     * Initializes the contract with a contractor\r\n     */\r\n    function init() public {\r\n        // the contractor \r\n        contractor = msg.sender;\r\n        \r\n        // sets the state to init \r\n        state = 0;\r\n    }\r\n    \r\n    /**\r\n     * Sets the public key of the private key the contract is looking for and sets a timeout \r\n     * \r\n     * Assumptions: \r\n     * - The key pairs are eddsa key pairs \r\n     * \r\n     * - pubkey The public keys \r\n     * - tend The timeout of the contract\r\n     * - msg.value Reward for finding the secret key \r\n     * \r\n     * Modifiers:\r\n     * - The reward must be greater than the small reward\r\n     * - This method can only be called by the contractor\r\n     * - Init must have already been called \r\n     */\r\n    function Create(bytes[2] memory pubKey, uint256 tend) public payable assertReward() isContractor() assertState(0) {\r\n        // sets the keys \r\n        publicKey = pubKey;\r\n        \r\n        // sets the timeout \r\n        tEnd = tend;\r\n        \r\n        // sets the reward \r\n        reward = msg.value;\r\n        \r\n        // sets the state to created \r\n        state = 1;\r\n    }\r\n    \r\n    /**\r\n     * Sets the perpetrator that intends to find the secret key\r\n     * \r\n     * Assumptions: \r\n     * - sends in a commit that is a valid hmacsha256 \r\n     * \r\n     * - commitment The commitment that the perpetrator will find the key\r\n     * - msg.sender The perpetrator \r\n     * \r\n     * Modifiers: \r\n     * - Makes sure create has already been called\r\n     * - Checks if the perpetrator has not already been set \r\n     */\r\n    function intent(bytes32 commitment) public assertState(1) assertPerpetrator() {\r\n        // sets the address of the perpetrator \r\n        perpetrator.perpAddress = msg.sender;\r\n        \r\n        // validates that the perpetrator sent the intent \r\n        perpetrator.sentIntent = true;\r\n        \r\n        // the perpetrators commitment \r\n        perpetrator.commit = commitment;\r\n    }\r\n    \r\n    /** \r\n     * The perpetrator can claim the reward if the secret keys match. This is done using the zk-snark proof off \r\n     * chain. It can be verified by anyone that it is a valid proof by verifying the proof with parameters\r\n     * \r\n     * Assumptions: \r\n     * - The keys are validated off chain \r\n     * \r\n     * ct: The key used for the commitment \r\n     * r: The message used for commitment \r\n     * a, b, c, input: the parameters used for \r\n     * \r\n     * Modifiers: \r\n     * - Asserts that there was a created private key to steals\r\n     * - Asserts that the perpetrator set the intent\r\n     * - Asserts that the caller is the perpetrator \r\n     */\r\n    function claim(bytes memory ct, bytes memory r, uint[2] memory a, uint[2][2] memory b, \r\n        uint[2] memory c, uint[4] memory input) public assertState(1) assertPerpetratorIntent() isPerpetrator(){\r\n        \r\n        // calculates the commitment \r\n        bytes32 cm = _hmacsha256(r, ct);\r\n        \r\n        // checks if the sent commitment is equal to the perpetrators committment \r\n        require(cm == perpetrator.commit, \"The commitment for this claim does not match the intent\");\r\n        \r\n        // sets the verification parameters to that they are visible on the blockchain \r\n        verificationParams.a = a;\r\n        verificationParams.b = b;\r\n        verificationParams.c = c;\r\n        verificationParams.input = input;\r\n        \r\n        // sets the state to claimed\r\n        state = 2;\r\n    }\r\n    \r\n    /**\r\n     * Prevents a revoke and claim attack. If the certificate for the keys have been revoked then \r\n     * the perpetrator will not get the full reward\r\n     * \r\n     * Assumptions: \r\n     * - We could not get a valid revocation list because of test data so we made our own by  creating a \r\n     *   list of keys. Since 2D arrays are not fully implemented and correct in solidity (they are the reason\r\n     *   for the experimental encoder), they are a list of the first keys and the second keys, and are assumed to \r\n     *   pairs at every index number \r\n     * \r\n     * revokedKeys1: The list of keys of the first keys \r\n     * revokedKeys2: The list of keys of the second keys \r\n     */\r\n    function revoke(bytes[] memory revokedKeys1, bytes[] memory revokedKeys2) public {\r\n        \r\n        // The list of the revoked keys sizes must match \r\n        require(revokedKeys1.length == revokedKeys2.length, \"revokedKeys1 and revokedKeys2 should be equal in length\");\r\n        \r\n        // counter \r\n        uint i = 0;\r\n        \r\n        // if the keys have been revoked \r\n        bool verify = false;\r\n        \r\n        // check every key \r\n        while(verify == false && i < revokedKeys1.length) {\r\n            \r\n            // gets the keys to check from the revoked key list \r\n            bytes memory rk1 = revokedKeys1[i];\r\n            bytes memory rk2 = revokedKeys2[i];\r\n            \r\n            // gets the public key \r\n            bytes memory pk1 = publicKey[0];\r\n            bytes memory pk2 = publicKey[1];\r\n            \r\n            // checks if they match \r\n            if (keccak256(abi.encodePacked(rk1)) == keccak256(abi.encodePacked(pk1)) && \r\n                keccak256(abi.encodePacked(rk2)) == keccak256(abi.encodePacked(pk2))) {\r\n                verify = true;\r\n            }\r\n    \r\n            // increment \r\n            i++;\r\n        }\r\n        \r\n        // if none of the keys match, they havent been revoked, so dont continue \r\n        if (verify == false) revert();\r\n        \r\n        // transfer the small reward to the user who found the revoked key \r\n        msg.sender.transfer(smallReward);\r\n        \r\n        if (state == 2) {\r\n            // if the key had already been claimed, give the perpetrator a reward \r\n            // that is a function of the time since the last claim \r\n            uint256 t = now - timeSinceClaim;\r\n            perpetrator.perpAddress.transfer(reward / t);\r\n        } else {\r\n            // give the contractor his money back without the small reward paid to the finder \r\n            contractor.transfer(reward - smallReward);\r\n        }\r\n        \r\n        // sets the state to aborted \r\n        state = 3;\r\n    }\r\n   \r\n    /** \r\n     * Checks the time of the contract and assigns the reward based on the result\r\n     * \r\n     * Modifier: \r\n     * Asserts that claimed was called \r\n     */\r\n    function timer() public assertState(2) {\r\n        \r\n        // checks if the time elapsed has been long enough to get the reward\r\n        // change hardcoded for simplicity \r\n        if(1000 < (now - timeSinceClaim)) {\r\n            // sends the perpetrator the reward \r\n            perpetrator.perpAddress.transfer(reward);\r\n            \r\n            // sets the state to aborted \r\n            state = 3;\r\n        } else if (now > tEnd) {\r\n            // if the contract times out transfer the reward back to the contractor \r\n            contractor.transfer(reward);\r\n            \r\n            // set the state to aborted \r\n            state = 3;\r\n        }\r\n    }\r\n    \r\n    /** \r\n     * Helper function to make the intent \r\n     * \r\n     * ct: the key generate the hmacsha256\r\n     * r: the message \r\n     */\r\n    function MakeIntent(bytes memory ct, bytes memory r) public  pure returns (bytes32){\r\n        return _hmacsha256(r, ct);\r\n    }\r\n\r\n    /** \r\n     * function to compute the hmacsha256 \r\n     * \r\n     * Retrieved from https://ethereum.stackexchange.com/questions/64510/hmac-x-implementation-for-solidity by saman.shahmohamadi\r\n     * \r\n     * key: the key to encrypt with \r\n     * message: the message to encrypt \r\n     */\r\n    function _hmacsha256(bytes memory key, bytes memory message) internal pure returns (bytes32) {\r\n        bytes32 keyl;\r\n        bytes32 keyr;\r\n        uint i;\r\n        if (key.length > 64) {\r\n            keyl = keccak256(key);\r\n        } else {\r\n            for (i = 0; i < key.length && i < 32; i++){\r\n                uint keyAtIndex;\r\n                assembly {\r\n                    keyAtIndex := mload(add(key, i))\r\n                }\r\n                keyl |= bytes32(keyAtIndex * 2 ** (8 * (31 - i)));\r\n\r\n            }\r\n            for (i = 32; i < key.length && i < 64; i++){\r\n                uint keyAtIndex;\r\n                assembly {\r\n                    keyAtIndex := mload(add(key, i))\r\n                }\r\n                keyr |= bytes32(keyAtIndex * 2 ** (8 * (63 - i)));\r\n\r\n            }\r\n        }\r\n        bytes32 threesix = 0x3636363636363636363636363636363636363636363636363636363636363636;\r\n        bytes32 fivec = 0x5c5c5c5c5c5c5c5c5c5c5c5c5c5c5c5c5c5c5c5c5c5c5c5c5c5c5c5c5c5c5c5c;\r\n        return keccak256(abi.encodePacked(fivec ^ keyl, fivec ^ keyr, keccak256(abi.encodePacked(threesix ^ keyl, threesix ^ keyr, message))));\r\n    }\r\n    \r\n    /**\r\n     * Helper function to get the current time\r\n     */ \r\n    function GetTime() public view returns (uint256) {\r\n        return now;\r\n    }\r\n    \r\n    //[\"0x14897476871502190904409029696666322856887678969656209656241038339251270171395\", \"0x16668832459046858928951622951481252834155254151733002984053501254009901876174\"]\r\n   // return [bytes(0x14897476871502190904409029696666322856887678969656209656241038339251270171395),\r\n     //       bytes(0x16668832459046858928951622951481252834155254151733002984053501254009901876174)];\r\n     //[\"0x14897476871502190904409029696666322856887678969656209656241038339251270171395\"]\r\n     \r\n     //[\"0x16668832459046858928951622951481252834155254151733002984053501254009901876174\"]\r\n     \r\n     //0xc4cd34fdf9d78044cac20db0407ba4640d1c73f06110468f4f0544454b6626da\r\n}\r\n\r\n\r\n\r\n\r\n",
  "sourcePath": "D:/Downloads/SeminarProject/SeminarProject/code/blockchain/contracts/KeyTheft.sol",
  "compiler": {
    "name": "solc",
    "version": "0.5.0+commit.1d4f565a.Emscripten.clang"
  },
  "schemaVersion": "3.0.8",
  "updatedAt": "2019-05-07T02:45:15.773Z",
  "devdoc": {
    "methods": {}
  },
  "userdoc": {
    "methods": {
      "Create(bytes[2],uint256)": {
        "notice": "Sets the public key of the private key the contract is looking for and sets a timeout \r \r Assumptions: \r - The key pairs are eddsa key pairs \r \r - pubkey The public keys \r - tend The timeout of the contract\r - msg.value Reward for finding the secret key \r \r Modifiers:\r - The reward must be greater than the small reward\r - This method can only be called by the contractor\r - Init must have already been called \r"
      },
      "GetTime()": {
        "notice": "Helper function to get the current time\r"
      },
      "MakeIntent(bytes,bytes)": {
        "notice": "Helper function to make the intent \r \r ct: the key generate the hmacsha256\r r: the message \r"
      },
      "claim(bytes,bytes,uint256[2],uint256[2][2],uint256[2],uint256[4])": {
        "notice": "The perpetrator can claim the reward if the secret keys match. This is done using the zk-snark proof off \r chain. It can be verified by anyone that it is a valid proof by verifying the proof with parameters\r \r Assumptions: \r - The keys are validated off chain \r \r ct: The key used for the commitment \r r: The message used for commitment \r a, b, c, input: the parameters used for \r \r Modifiers: \r - Asserts that there was a created private key to steals\r - Asserts that the perpetrator set the intent\r - Asserts that the caller is the perpetrator \r"
      },
      "constructor": "Instantiates the contract instance\r",
      "init()": {
        "notice": "Initializes the contract with a contractor\r"
      },
      "intent(bytes32)": {
        "notice": "Sets the perpetrator that intends to find the secret key\r \r Assumptions: \r - sends in a commit that is a valid hmacsha256 \r \r - commitment The commitment that the perpetrator will find the key\r - msg.sender The perpetrator \r \r Modifiers: \r - Makes sure create has already been called\r - Checks if the perpetrator has not already been set \r"
      },
      "revoke(bytes[],bytes[])": {
        "notice": "Prevents a revoke and claim attack. If the certificate for the keys have been revoked then \r the perpetrator will not get the full reward\r \r Assumptions: \r - We could not get a valid revocation list because of test data so we made our own by  creating a \r  list of keys. Since 2D arrays are not fully implemented and correct in solidity (they are the reason\r  for the experimental encoder), they are a list of the first keys and the second keys, and are assumed to \r  pairs at every index number \r \r revokedKeys1: The list of keys of the first keys \r revokedKeys2: The list of keys of the second keys \r"
      },
      "timer()": {
        "notice": "Checks the time of the contract and assigns the reward based on the result\r \r Modifier: \r Asserts that claimed was called \r"
      }
    },
    "notice": "Contract to post public keys that the contractor is looking for, and a perpetrator steals the key (off chain)\r and gives it to the contractor in exchange for money\r \r Assumptions: \r - The keys pairs are keys generated for eddsa \r - The keys are verified for correctness off chain (by the zk-snark code)\r"
  }
}