{
  "contractName": "PublicLeaks",
  "abi": [
    {
      "inputs": [],
      "payable": false,
      "stateMutability": "nonpayable",
      "type": "constructor",
      "signature": "constructor"
    },
    {
      "constant": false,
      "inputs": [],
      "name": "init",
      "outputs": [],
      "payable": false,
      "stateMutability": "nonpayable",
      "type": "function",
      "signature": "0xe1c7392a"
    },
    {
      "constant": false,
      "inputs": [
        {
          "name": "kh",
          "type": "bytes32[]"
        },
        {
          "name": "rss",
          "type": "uint256"
        },
        {
          "name": "rbn",
          "type": "uint256"
        },
        {
          "name": "te",
          "type": "uint256"
        }
      ],
      "name": "create",
      "outputs": [],
      "payable": true,
      "stateMutability": "payable",
      "type": "function",
      "signature": "0x773dff61"
    },
    {
      "constant": false,
      "inputs": [
        {
          "name": "sampledKeys",
          "type": "bytes32[]"
        }
      ],
      "name": "confirm",
      "outputs": [],
      "payable": false,
      "stateMutability": "nonpayable",
      "type": "function",
      "signature": "0xf65b7adb"
    },
    {
      "constant": false,
      "inputs": [],
      "name": "donate",
      "outputs": [],
      "payable": true,
      "stateMutability": "payable",
      "type": "function",
      "signature": "0xed88c68e"
    },
    {
      "constant": false,
      "inputs": [
        {
          "name": "remainingKeys",
          "type": "bytes32[]"
        }
      ],
      "name": "accept",
      "outputs": [],
      "payable": false,
      "stateMutability": "nonpayable",
      "type": "function",
      "signature": "0xe71e2dcf"
    },
    {
      "constant": false,
      "inputs": [],
      "name": "timer",
      "outputs": [],
      "payable": false,
      "stateMutability": "nonpayable",
      "type": "function",
      "signature": "0x88c9cb3c"
    },
    {
      "constant": true,
      "inputs": [],
      "name": "returnTimestamp",
      "outputs": [
        {
          "name": "",
          "type": "uint256"
        }
      ],
      "payable": false,
      "stateMutability": "view",
      "type": "function",
      "signature": "0x1e633a73"
    },
    {
      "constant": true,
      "inputs": [],
      "name": "returnBlockNum",
      "outputs": [
        {
          "name": "",
          "type": "uint256"
        }
      ],
      "payable": false,
      "stateMutability": "view",
      "type": "function",
      "signature": "0xf2e8b373"
    },
    {
      "constant": true,
      "inputs": [
        {
          "name": "b",
          "type": "bytes32"
        }
      ],
      "name": "hash",
      "outputs": [
        {
          "name": "",
          "type": "bytes32"
        }
      ],
      "payable": false,
      "stateMutability": "pure",
      "type": "function",
      "signature": "0xd8389dc5"
    },
    {
      "constant": true,
      "inputs": [],
      "name": "getFinalized",
      "outputs": [
        {
          "name": "",
          "type": "uint256"
        }
      ],
      "payable": false,
      "stateMutability": "view",
      "type": "function",
      "signature": "0x6b28a5e4"
    }
  ],
  "bytecode": "0x608060405234801561001057600080fd5b5061133b806100206000396000f3fe6080604052600436106100a4576000357c0100000000000000000000000000000000000000000000000000000000900463ffffffff1680631e633a73146100a95780636b28a5e4146100d4578063773dff61146100ff57806388c9cb3c146101d5578063d8389dc5146101ec578063e1c7392a1461023b578063e71e2dcf14610252578063ed88c68e14610317578063f2e8b37314610321578063f65b7adb1461034c575b600080fd5b3480156100b557600080fd5b506100be610411565b6040518082815260200191505060405180910390f35b3480156100e057600080fd5b506100e9610419565b6040518082815260200191505060405180910390f35b6101d36004803603608081101561011557600080fd5b810190808035906020019064010000000081111561013257600080fd5b82018360208201111561014457600080fd5b8035906020019184602083028401116401000000008311171561016657600080fd5b919080806020026020016040519081016040528093929190818152602001838360200280828437600081840152601f19601f820116905080830192505050505050509192919290803590602001909291908035906020019092919080359060200190929190505050610423565b005b3480156101e157600080fd5b506101ea6107d7565b005b3480156101f857600080fd5b506102256004803603602081101561020f57600080fd5b81019080803590602001909291905050506108f0565b6040518082815260200191505060405180910390f35b34801561024757600080fd5b50610250610920565b005b34801561025e57600080fd5b506103156004803603602081101561027557600080fd5b810190808035906020019064010000000081111561029257600080fd5b8201836020820111156102a457600080fd5b803590602001918460208302840111640100000000831117156102c657600080fd5b919080806020026020016040519081016040528093929190818152602001838360200280828437600081840152601f19601f82011690508083019250505050505050919291929050505061097a565b005b61031f610d17565b005b34801561032d57600080fd5b50610336610e90565b6040518082815260200191505060405180910390f35b34801561035857600080fd5b5061040f6004803603602081101561036f57600080fd5b810190808035906020019064010000000081111561038c57600080fd5b82018360208201111561039e57600080fd5b803590602001918460208302840111640100000000831117156103c057600080fd5b919080806020026020016040519081016040528093929190818152602001838360200280828437600081840152601f19601f820116905080830192505050505050509192919290505050610e98565b005b600042905090565b6000600c54905090565b600160009054906101000a900473ffffffffffffffffffffffffffffffffffffffff1673ffffffffffffffffffffffffffffffffffffffff163373ffffffffffffffffffffffffffffffffffffffff161415156104e8576040517f08c379a000000000000000000000000000000000000000000000000000000000815260040180806020018281038252601d8152602001807f4d75737420626520696e766f6b656420627920746865206c65616b657200000081525060200191505060405180910390fd5b8383620f42403410151515610565576040517f08c379a00000000000000000000000000000000000000000000000000000000081526004018080602001828103825260168152602001807f4e65656473206120686967686572206465706f7369740000000000000000000081525060200191505060405180910390fd5b6000600754141515610605576040517f08c379a000000000000000000000000000000000000000000000000000000000815260040180806020018281038252602d8152602001807f4c65616b65722073686f756c64206e6f74206861766520616c7265616479206d81526020017f6164652061206465706f7369740000000000000000000000000000000000000081525060400191505060405180910390fd5b8151811015156106a3576040517f08c379a00000000000000000000000000000000000000000000000000000000081526004018080602001828103825260318152602001807f52657665616c65642073616d706c65206d757374206265206c6573732074686181526020017f6e206b65792068617368206c656e67746800000000000000000000000000000081525060400191505060405180910390fd5b600080600054141515610744576040517f08c379a000000000000000000000000000000000000000000000000000000000815260040180806020018281038252602f8152602001807f4e6f7420696e2074686520726571756972656420737461746520746f2063616c81526020017f6c20746869732066756e6374696f6e000000000000000000000000000000000081525060400191505060405180910390fd5b600160008190555034600781905550865160088190555085600381905550836006819055508460058190555060008090505b87518110156107cd576002888281518110151561078f57fe5b906020019060200201519080600181540180825580915050906001820390600052602060002001600090919290919091505550600181019050610776565b5050505050505050565b6000600c54141515610851576040517f08c379a00000000000000000000000000000000000000000000000000000000081526004018080602001828103825260198152602001807f4c65616b20697320616c72656164792066696e616c697a65640000000000000081525060200191505060405180910390fd5b6000600a5460075481151561086257fe5b04600460003373ffffffffffffffffffffffffffffffffffffffff1673ffffffffffffffffffffffffffffffffffffffff168152602001908152602001600020540190503373ffffffffffffffffffffffffffffffffffffffff166108fc829081150290604051600060405180830381858888f193505050501580156108ec573d6000803e3d6000fd5b5050565b60008160405160200180828152602001915050604051602081830303815290604052805190602001209050919050565b6000808190555033600160006101000a81548173ffffffffffffffffffffffffffffffffffffffff021916908373ffffffffffffffffffffffffffffffffffffffff16021790555060006007819055506000600c81905550565b80600354600854038151141515610a1f576040517f08c379a00000000000000000000000000000000000000000000000000000000081526004018080602001828103825260278152602001807f57726f6e67206c656e677468206f662072656d61696e696e67206b657973206981526020017f6d706f727465640000000000000000000000000000000000000000000000000081525060400191505060405180910390fd5b6006544211151515610a99576040517f08c379a00000000000000000000000000000000000000000000000000000000081526004018080602001828103825260168152602001807f54696d652068617320616c726561647920656e6465640000000000000000000081525060200191505060405180910390fd5b600160009054906101000a900473ffffffffffffffffffffffffffffffffffffffff1673ffffffffffffffffffffffffffffffffffffffff163373ffffffffffffffffffffffffffffffffffffffff16141515610b5e576040517f08c379a000000000000000000000000000000000000000000000000000000000815260040180806020018281038252601d8152602001807f4d75737420626520696e766f6b656420627920746865206c65616b657200000081525060200191505060405180910390fd5b6000600c54141515610bd8576040517f08c379a00000000000000000000000000000000000000000000000000000000081526004018080602001828103825260198152602001807f4c65616b20697320616c72656164792066696e616c697a65640000000000000081525060200191505060405180910390fd5b600060018351039050600060016002805490500390506000600190505b600181148015610c055750845183105b15610ca95760008584815181101515610c1a57fe5b90602001906020020151604051602001808281526020019150506040516020818303038152906040528051906020012090506000600284815481101515610c5d57fe5b906000526020600020015490508082141515610c7857600092505b60006001860310158015610c90575060006001850310155b15610ca2576001850394506001840393505b5050610bf5565b6001811415610d10573373ffffffffffffffffffffffffffffffffffffffff166108fc600754600b54019081150290604051600060405180830381858888f19350505050158015610cfe573d6000803e3d6000fd5b506001600c8190555060036000819055505b5050505050565b6006544211151515610d91576040517f08c379a00000000000000000000000000000000000000000000000000000000081526004018080602001828103825260168152602001807f54696d652068617320616c726561647920656e6465640000000000000000000081525060200191505060405180910390fd5b600280600054141515610e32576040517f08c379a000000000000000000000000000000000000000000000000000000000815260040180806020018281038252602f8152602001807f4e6f7420696e2074686520726571756972656420737461746520746f2063616c81526020017f6c20746869732066756e6374696f6e000000000000000000000000000000000081525060400191505060405180910390fd5b34600460003373ffffffffffffffffffffffffffffffffffffffff1673ffffffffffffffffffffffffffffffffffffffff168152602001908152602001600020819055506001600a5401600a8190555034600b5401600b8190555050565b600043905090565b600160009054906101000a900473ffffffffffffffffffffffffffffffffffffffff1673ffffffffffffffffffffffffffffffffffffffff163373ffffffffffffffffffffffffffffffffffffffff16141515610f5d576040517f08c379a000000000000000000000000000000000000000000000000000000000815260040180806020018281038252601d8152602001807f4d75737420626520696e766f6b656420627920746865206c65616b657200000081525060200191505060405180910390fd5b806003548151141515610ffe576040517f08c379a00000000000000000000000000000000000000000000000000000000081526004018080602001828103825260388152602001807f53616d706c65206b65797320646f65736e74206d61746368207468652073697a81526020017f6520746865206c65616b657220636f6d6d6974656420746f000000000000000081525060400191505060405180910390fd5b60018060005414151561109f576040517f08c379a000000000000000000000000000000000000000000000000000000000815260040180806020018281038252602f8152602001807f4e6f7420696e2074686520726571756972656420737461746520746f2063616c81526020017f6c20746869732066756e6374696f6e000000000000000000000000000000000081525060400191505060405180910390fd5b6000434060019004905060008090508160000391505b6003548110156112db5760008212156110cf578160000391505b6000600854838115156110de57fe5b079050600060019050600080905060008090505b600980549050811015611137578360098281548110151561110f57fe5b906000526020600020906003020160010154141561112c57600091505b6001810190506110f2565b60001515821515141561114957600092505b5b60011515831515141561120e578560010260405160200180828152602001915050604051602081830303815290604052805190602001206001900495506000861215611197578560000395505b600854868115156111a457fe5b0793506000809050600092505b6009805490508110156111f657846009828154811015156111ce57fe5b90600052602060002090600302016001015414156111eb57600192505b6001810190506111b1565b60001515831515141561120857600093505b5061114a565b6112166112ea565b898681518110151561122457fe5b906020019060200201518160000181815250508481602001818152505060018160400181815250506009819080600181540180825580915050906001820390600052602060002090600302016000909192909190915060008201518160000155602082015181600101556040820151816002015550505086600102604051602001808281526020019150506040516020818303038152906040528051906020012060019004965060018601955050505050506110b5565b60026000819055505050505050565b606060405190810160405280600080191681526020016000815260200160008152509056fea165627a7a72305820440e29275048179bcd8c7f0fc44754a61f5d32dba0ad10e2822a9901a634452c0029",
  "source": "pragma solidity ^0.5.0;\r\n\r\n// accept\r\n// [\"0xe09ddc92f7aba0ca30ad4605055e0d61738aad08095080e96224833d93e96135\",\"0x79d8c8c548e9cd2ca8a064d2ced06cb193981da1ac7bde34332e24b678b8b58b\"]\r\n\r\n//confirm \r\n// [\"0x6f22768ff041f8d524077b6d5a2f3cf789d58ba4618126a6a5fd3a349e018bfd\", \"0x82ce375248fcab94c5d313cd09ff103d0fdeee2ec6b5971e437c78c6b15c0f50\"]\r\n\r\n// create\r\n// [\"0x9520335e658518ac5de69b857048787de0938cbe80614753996fe80e39c9059b\",\"0x738b42fe11f36c436e4bdf585d92a109ab0d4ff2dd747e10c36a7fa05fe40421\",\"0xc67a1c257bac3a2f8590dfb5b5d9d9761bdec7a2657f6bcc59899a059523b627\", \"0x2f6af6315fb0c183a950b2934a503f97aabfbf6e5da674ceac019736391e9909\"]\r\n\r\n\r\n/**\r\n * Contract to leak a secret in return for donations. In this case the leaked secrets are private keys\r\n * This follows the implementation in the paper. It was translated to solidity so it is different \r\n * \r\n * Assumptions: \r\n * - The keys used are ethereum public keys\r\n * - The leaker reveals the keys in the order that he posts them\r\n * - The confirmed keys are assumed checked for correctness off chain  \r\n * \r\n */\r\ncontract PublicLeaks {\r\n  \r\n  // struct to hold the idx value\r\n  // this is simulating the random indicies which solidity isn't capable of\r\n  struct Idx {\r\n      bytes32 key;\r\n      uint256 idx;\r\n      uint value;\r\n  }\r\n  \r\n  // the state that the contract is in\r\n  uint state; // 0 - init, 1 - created, 2 - confirmed, 3 - aborted\r\n  \r\n  // the address of the leaker\r\n  address leakerAddress;\r\n  \r\n  // the hashes of the keys to be leaked\r\n  bytes32[] keyHashes;\r\n  \r\n  // the size of the key set to be revealed\r\n  uint256 revealedSetSize;\r\n  \r\n  // a mapping of the users to the donation that they have set\r\n  // to get the leaker to leak the keys\r\n  mapping(address => uint) donations;\r\n  \r\n  // the block number of this block\r\n  uint revealBlockNumber;\r\n  \r\n  // the end of how long the leaker has to leak the keys\r\n  uint256 tEnd;\r\n  \r\n  // the leakers deposit\r\n  uint deposit;\r\n  \r\n  // the number of keys that were committed to be revealed\r\n  uint numChunks;\r\n  \r\n  // the sample of keys that were revealed in confirm\r\n  Idx[] selectedSample;\r\n  \r\n  // the number of users who have donated\r\n  uint256 numDonors;\r\n  \r\n  // the sum of the donations from the users \r\n  uint256 sumDonations;\r\n  \r\n  // flag for if the leak has been finalized\r\n  uint finalized;\r\n  \r\n  /**\r\n   * Empty constructor\r\n   */ \r\n  constructor() public {}\r\n  \r\n  /**\r\n   * Modifier to check if the caller is the leaker. Reverts if its not\r\n   */ \r\n  modifier isLeaker() {\r\n      require(msg.sender == leakerAddress, \"Must be invoked by the leaker\");\r\n      _;\r\n  }\r\n  \r\n  /**\r\n   * Checks if the contract is in the correct state for the method to be called.\r\n   * Reverts if it isnt\r\n   */\r\n  modifier assertState(uint inState) {\r\n      require(state == inState, \"Not in the required state to call this function\");\r\n      _;\r\n  }\r\n  \r\n  /**\r\n   * Checks if create can be called\r\n   */\r\n  modifier checkCreate(bytes32[] memory kh, uint256 rss) {\r\n      // reverts if the message value is not large enough\r\n      require(msg.value >= 1000000, \"Needs a higher deposit\");\r\n      \r\n      // reverts if the leaker has already made a deposit\r\n      require(deposit == 0, \"Leaker should not have already made a deposit\");\r\n      \r\n      // reverts if the number of samples the leaker will reveal is less than the \r\n      // number of key hashes he is leaking \r\n      require(rss < kh.length, \"Revealed sample must be less than key hash length\");\r\n      _;\r\n  }\r\n  \r\n  /**\r\n   * Checks if the user has already donated\r\n   */\r\n  modifier hasDonated() {\r\n      require(donations[msg.sender] > 0, \"Message sender has not donated\");\r\n      _;\r\n  }\r\n  \r\n  /**\r\n   * Checks if the sample length is the same as the set size promised to be revealed\r\n   */ \r\n  modifier checkSampleLength(bytes32[] memory sampledKeys) {\r\n    require(sampledKeys.length == revealedSetSize, \"Sample keys doesnt match the size the leaker commited to\");    \r\n    _;\r\n  }\r\n  \r\n  /** \r\n   * Checks if the users can still donate to the leak\r\n   */\r\n  modifier checkIfNotEnded() {\r\n    require(now <= tEnd, \"Time has already ended\");\r\n    _;\r\n  }\r\n  \r\n  /**\r\n   * Makes sure the donation is greater than 0\r\n   */\r\n  modifier checkDonation() {\r\n      require(msg.value > 0, \"Donation must be greater than 0\");\r\n      _;\r\n  }\r\n  \r\n  /** \r\n   * Checks if the user has already donated\r\n   */\r\n  modifier alreadyDonated() {\r\n      require(donations[msg.sender] == 0, \"User has already donated\");\r\n      _;\r\n  }\r\n  \r\n  /**\r\n   * Checks if the leak has been finalized\r\n   */\r\n  modifier isFinalized() {\r\n      require(finalized == 0, \"Leak is already finalized\");\r\n      _;\r\n  }\r\n  \r\n  /**\r\n   * Checks if the remaining keys to be leaked matches the size that the leaker promised to reveal\r\n   */\r\n  modifier checkSentSize(bytes32[] memory remainingKeys) {\r\n      require(remainingKeys.length == (numChunks - revealedSetSize), \"Wrong length of remaining keys imported\");\r\n      _;\r\n  }\r\n  \r\n    /**\r\n   * Function to initialize the leak.\r\n   * This must be called by the leaker\r\n   */\r\n  function init() public {\r\n      state = 0;\r\n      leakerAddress = msg.sender;\r\n      deposit = 0;\r\n      finalized = 0;\r\n  }\r\n  \r\n  /**\r\n   * Creates a leak. The leaker sets the keys that he will leak to the \r\n   * public in exchange for donations. He sets the number of keys that he will \r\n   * reveal to confirm that he has the keys\r\n   * \r\n   * kh - the hashes of the keys that the leaker will leak\r\n   * rss - the size of the keys that the leaker will revealed\r\n   * rbn - the revealed block number\r\n   * te - the end time of the leak\r\n   * msg.value - the deposit that the leaker sets \r\n   * \r\n   * Modifiers: (reverts if any method is called)\r\n   * - The address that calls this method must be the leaker\r\n   * - Checks if the deposit is high enough\r\n   * - Checks if the leaker has already made a deposit\r\n   * - Makes sure that the revealed set size is less than the number of key hashes\r\n   * - Checks if the contract is in state init\r\n   */\r\n  function create(bytes32[] memory kh, uint256 rss, uint rbn, uint256 te) payable public isLeaker() checkCreate(kh, rss) assertState(0) {\r\n      // validates that create has been called\r\n      state = 1;\r\n      \r\n      // sets the deposit\r\n      deposit = msg.value;\r\n      \r\n      // sets the \r\n      numChunks = kh.length;\r\n      \r\n      // sets the number of keys that will be revealed in confirm\r\n      revealedSetSize = rss;\r\n      \r\n      // sets the timeout for the leak\r\n      tEnd = te;\r\n      \r\n      // sets the revealed block number\r\n      revealBlockNumber = rbn;\r\n      \r\n      // adds the keys to the array of key hashes\r\n      uint256 i = 0;\r\n      while (i < kh.length) {\r\n          keyHashes.push(kh[i]);\r\n          i = i + 1;\r\n      }\r\n  }\r\n  \r\n  /**\r\n   * Leaker reveals the number of keys that they set in revealed set size. This is to confirm that\r\n   * the leaker actually has valid keys to revealed. The storage simulates storing at random\r\n   * indicies, which is not supported in solidity\r\n   * \r\n   * Assumption: Keys are checked for correctness off chain \r\n   * \r\n   * - sampledKeys: the list of keys to be revealed\r\n   * \r\n   * Modifiers: (Reverts if conditions arent met)\r\n   * - Checks if the caller is the leaker\r\n   * - Checks if the length of the sample keys that were sent in is equal to the number that they promised to revealedSetSize\r\n   * - Checks if the create method has been called\r\n   */\r\n  function confirm(bytes32[] memory sampledKeys) public isLeaker() checkSampleLength(sampledKeys) assertState(1) {\r\n        // gets the seed from the blockhash\r\n        int256 seed = int256(blockhash(block.number));\r\n        \r\n        // counter variable\r\n        uint256 c = 0;\r\n        \r\n        // subtracts seed from 0\r\n        seed = 0 - seed;\r\n        \r\n        // do this for every key\r\n        while (c < revealedSetSize) {\r\n            // make sure the seed is negative\r\n            if (seed < 0) {\r\n                seed = 0 - seed;\r\n            }\r\n            \r\n            // sets the idx\r\n            uint256 idx = uint256(seed % int256(numChunks));\r\n        \r\n            // sets while loop flags\r\n            bool flag = true;\r\n            bool found = false;\r\n            \r\n            // the second counter\r\n            uint c2 = 0;\r\n            \r\n            while(c2 < selectedSample.length) {\r\n                // makes sure the idx was not selected more than once \r\n                if (selectedSample[c2].idx == idx) {\r\n                    found = false;        \r\n                }\r\n                \r\n                c2 = c2 + 1;\r\n            }\r\n            \r\n            if (found == false) {\r\n                flag = false;\r\n            }\r\n        \r\n            // recompute the idx if it was already used \r\n            while(flag == true) {\r\n                \r\n                // recompute the seed\r\n                seed = int256(keccak256(abi.encodePacked(bytes32(seed))));\r\n                \r\n                // makes sure the seed is negative \r\n                if (seed < 0) {\r\n                    seed = 0 - seed;\r\n                }\r\n                \r\n                // compute the idx from the seed\r\n                idx = uint256(seed % int256(numChunks));\r\n                \r\n                // checks if the new idx wasnt already set \r\n                uint c3 = 0;\r\n                found = false;\r\n                while(c3 < selectedSample.length) {\r\n                    if (selectedSample[c3].idx == idx) {\r\n                        found = true;        \r\n                    }\r\n                    c3 = c3 + 1;\r\n                }\r\n                \r\n                // stop if the idx was not already used \r\n                if (found == false) {\r\n                    flag = false;\r\n                }\r\n            }\r\n            \r\n            // creates the idx object \r\n            Idx memory temp;\r\n            temp.key = sampledKeys[c];\r\n            temp.idx = idx;\r\n            temp.value = 1;\r\n            \r\n            // adds it to the array \r\n            selectedSample.push(temp);\r\n        \r\n            // recompute the seed\r\n            seed = int256(keccak256(abi.encodePacked(bytes32(seed))));\r\n            \r\n            // increment the counter\r\n            c = c + 1;\r\n        }\r\n        \r\n        // set the state to confirmed\r\n        state = 2;\r\n  }\r\n  \r\n  /**\r\n   * Users send donations to the leaker so that he will leak the keys. The leaker will\r\n   * leak the keys if there is enough donations. Users can only make donations if the \r\n   * the leak has been confirmed\r\n   * \r\n   * - msg.value The deposit that the user seconds\r\n   * \r\n   * Modifiers:\r\n   * - Checks if donations can still be made \r\n   * - Asserts that confirm has been called\r\n   */\r\n  function donate() public payable checkIfNotEnded() assertState(2) {\r\n      \r\n      // sets the donations for the users \r\n      donations[msg.sender] = msg.value;\r\n      \r\n      // increments the number of donars\r\n      numDonors = numDonors + 1;\r\n      \r\n      // inrements the sum of the donations \r\n      sumDonations = sumDonations + msg.value;\r\n  }\r\n  \r\n  /**\r\n   * The leaker accepts the donations by revealing all of the keys. If the keys that the leaker\r\n   * sends in dont match the key hashes then the leaker does not get the reward\r\n   * \r\n   * Assumptions: The leaker sends in the keys in the order that he posted them\r\n   * \r\n   * -remainingKeys: The rest of the keys to be leaked\r\n   * \r\n   * Modifiers:\r\n   * - Checks if the size of the keys sent in is equal to the number of keys left to be revealed\r\n   * - Checks if the time to leak is not over \r\n   * - Checks if the leaker called this method\r\n   * - Checks if the leak has already been finalized\r\n   */\r\n  function accept(bytes32[] memory remainingKeys) public checkSentSize(remainingKeys) checkIfNotEnded() isLeaker() isFinalized() {\r\n    // sets the counts\r\n    uint idx1 = remainingKeys.length - 1;\r\n    uint idx2 = keyHashes.length - 1;\r\n    \r\n    // if any of the keys dont match, valid gets set to 0 \r\n    uint valid = 1;\r\n    \r\n    // checks if the keys match \r\n    while (valid == 1 && idx1 < remainingKeys.length) {\r\n       // gets the key and hashes it\r\n        bytes32 key = keccak256(abi.encodePacked(remainingKeys[idx1]));\r\n        \r\n        // gets the corresponding key \r\n        bytes32 keyHash = keyHashes[idx2];\r\n        \r\n        // checks if the keys are equal.\r\n        if (key != keyHash) {\r\n            valid = 0;\r\n        }\r\n        \r\n        // decrements the counter \r\n        if ((idx1 - 1) >= 0 && (idx2 - 1) >= 0) {\r\n            idx1 = idx1 - 1;\r\n            idx2 = idx2 - 1;    \r\n        }\r\n    }\r\n\r\n    // if all the keys match \r\n    if (valid == 1) {\r\n        // transfer the donations to \r\n        msg.sender.transfer(sumDonations + deposit);\r\n       \r\n        // sets the leak to finalized\r\n        finalized = 1;\r\n\r\n        // sets the state to accepted \r\n        state = 3;\r\n    } \r\n  }\r\n  \r\n\r\n  /**\r\n   * Timer function to give the donors their money back if the leak is never finalized\r\n   * in a reasonable amount of time. This is called by an individual donor in order to get \r\n   * only their money back \r\n   * \r\n   * Modifiers: \r\n   * - makes sure the leak has not already been finalized\r\n   */\r\n  function timer() public isFinalized() {\r\n    // calculates the donors donation and their share of the deposit\r\n    uint send = donations[msg.sender] + deposit / numDonors;\r\n    \r\n    // sends the donor their donation back \r\n    msg.sender.transfer(send);\r\n  }\r\n  \r\n  // helper functions for testing\r\n  \r\n  /**\r\n   * Returns the current time in the blockchain. Using this makes sure \r\n   * That there is no time disconnect\r\n   */\r\n  function returnTimestamp() public view returns (uint256) {\r\n      return now;\r\n  }\r\n  \r\n  /**\r\n   * Returns the current block number \r\n   */\r\n  function returnBlockNum() public view returns (uint256) {\r\n      return block.number;\r\n  }\r\n  \r\n  /**\r\n   * Hash function for the keys \r\n   */\r\n  function hash(bytes32 b) public pure returns (bytes32) {\r\n      return keccak256(abi.encodePacked(b));\r\n  }\r\n  \r\n  /**\r\n   * Returns if the leak has been finalized\r\n   */\r\n  function getFinalized() public view returns(uint256) {\r\n      return finalized;\r\n  }\r\n}\r\n\r\n// example\r\n\r\n// key 1 f742ce7715bd886d980242168f2dff372b8fb44d50abfdd122da43075f1a77ca\r\n// key2 2a06265b194a95beb0b8edd24baeccc221bced22176ef1bfffa529fcc160838a\r\n// key3 b9c68c86600fbb317e42e44f1a6d81ae2444468ffcb8badff6c575fe76bd455c\r\n// key4 6b3d18db528ac7ea566b04b1a40a1ffa6749761ffc9bbb9d918a2d3716ad6a39\r\n\r\n// create\r\n\r\n//[\"0xc0f9f5b17d6afe6c5ea9be106bea3b9275a55a1a25b2009ff3e6f5571f794c95\", \"0x73426b752f2ea2bd9aca6c78cc4a7a3ef8855bb060e3d346f72c0be450aa9da0\", \"0x138277bffedec1ca59336a042f16a04632472f16c2837723d9358b2dc3233b77\", \"0xb7cc155a5895dfdb143215a182c1505fcd91142a5ae82d4f7ecdd93aa87745e2\"]\r\n\r\n\r\n// confirm\r\n//[\"0xf742ce7715bd886d980242168f2dff372b8fb44d50abfdd122da43075f1a77ca\", \"0x2a06265b194a95beb0b8edd24baeccc221bced22176ef1bfffa529fcc160838a\"]\r\n\r\n// accept\r\n//[\"0xb9c68c86600fbb317e42e44f1a6d81ae2444468ffcb8badff6c575fe76bd455c\", \"0x6b3d18db528ac7ea566b04b1a40a1ffa6749761ffc9bbb9d918a2d3716ad6a39\"]",
  "sourcePath": "D:/Downloads/SeminarProject/SeminarProject/code/blockchain/contracts/PublicLeaks.sol",
  "compiler": {
    "name": "solc",
    "version": "0.5.0+commit.1d4f565a.Emscripten.clang"
  },
  "schemaVersion": "3.0.8",
  "updatedAt": "2019-05-07T02:45:15.745Z",
  "devdoc": {
    "methods": {}
  },
  "userdoc": {
    "methods": {
      "accept(bytes32[])": {
        "notice": "The leaker accepts the donations by revealing all of the keys. If the keys that the leaker\r sends in dont match the key hashes then the leaker does not get the reward\r \r Assumptions: The leaker sends in the keys in the order that he posted them\r \r -remainingKeys: The rest of the keys to be leaked\r \r Modifiers:\r - Checks if the size of the keys sent in is equal to the number of keys left to be revealed\r - Checks if the time to leak is not over \r - Checks if the leaker called this method\r - Checks if the leak has already been finalized\r"
      },
      "confirm(bytes32[])": {
        "notice": "Leaker reveals the number of keys that they set in revealed set size. This is to confirm that\r the leaker actually has valid keys to revealed. The storage simulates storing at random\r indicies, which is not supported in solidity\r \r Assumption: Keys are checked for correctness off chain \r \r - sampledKeys: the list of keys to be revealed\r \r Modifiers: (Reverts if conditions arent met)\r - Checks if the caller is the leaker\r - Checks if the length of the sample keys that were sent in is equal to the number that they promised to revealedSetSize\r - Checks if the create method has been called\r"
      },
      "constructor": "Empty constructor\r",
      "create(bytes32[],uint256,uint256,uint256)": {
        "notice": "Creates a leak. The leaker sets the keys that he will leak to the \r public in exchange for donations. He sets the number of keys that he will \r reveal to confirm that he has the keys\r \r kh - the hashes of the keys that the leaker will leak\r rss - the size of the keys that the leaker will revealed\r rbn - the revealed block number\r te - the end time of the leak\r msg.value - the deposit that the leaker sets \r \r Modifiers: (reverts if any method is called)\r - The address that calls this method must be the leaker\r - Checks if the deposit is high enough\r - Checks if the leaker has already made a deposit\r - Makes sure that the revealed set size is less than the number of key hashes\r - Checks if the contract is in state init\r"
      },
      "donate()": {
        "notice": "Users send donations to the leaker so that he will leak the keys. The leaker will\r leak the keys if there is enough donations. Users can only make donations if the \r the leak has been confirmed\r \r - msg.value The deposit that the user seconds\r \r Modifiers:\r - Checks if donations can still be made \r - Asserts that confirm has been called\r"
      },
      "getFinalized()": {
        "notice": "Returns if the leak has been finalized\r"
      },
      "hash(bytes32)": {
        "notice": "Hash function for the keys \r"
      },
      "init()": {
        "notice": "Function to initialize the leak.\r This must be called by the leaker\r"
      },
      "returnBlockNum()": {
        "notice": "Returns the current block number \r"
      },
      "returnTimestamp()": {
        "notice": "Returns the current time in the blockchain. Using this makes sure \r That there is no time disconnect\r"
      },
      "timer()": {
        "notice": "Timer function to give the donors their money back if the leak is never finalized\r in a reasonable amount of time. This is called by an individual donor in order to get \r only their money back \r \r Modifiers: \r - makes sure the leak has not already been finalized\r"
      }
    },
    "notice": "Contract to leak a secret in return for donations. In this case the leaked secrets are private keys\r This follows the implementation in the paper. It was translated to solidity so it is different \r \r Assumptions: \r - The keys used are ethereum public keys\r - The leaker reveals the keys in the order that he posts them\r - The confirmed keys are assumed checked for correctness off chain  \r \r"
  }
}