{
  "contractName": "SiteDeface",
  "abi": [
    {
      "inputs": [],
      "payable": true,
      "stateMutability": "payable",
      "type": "constructor",
      "signature": "constructor"
    },
    {
      "constant": false,
      "inputs": [
        {
          "name": "pk",
          "type": "address"
        },
        {
          "name": "url",
          "type": "string"
        },
        {
          "name": "stmt",
          "type": "string"
        }
      ],
      "name": "Init",
      "outputs": [],
      "payable": true,
      "stateMutability": "payable",
      "type": "function",
      "signature": "0x488cc9db"
    },
    {
      "constant": false,
      "inputs": [
        {
          "name": "vcc_i",
          "type": "bytes32"
        }
      ],
      "name": "Commit",
      "outputs": [],
      "payable": false,
      "stateMutability": "nonpayable",
      "type": "function",
      "signature": "0x9e8a51bb"
    },
    {
      "constant": true,
      "inputs": [
        {
          "name": "cc",
          "type": "string"
        },
        {
          "name": "randomness",
          "type": "bytes"
        }
      ],
      "name": "MakeVCC",
      "outputs": [
        {
          "name": "",
          "type": "bytes32"
        }
      ],
      "payable": false,
      "stateMutability": "view",
      "type": "function",
      "signature": "0x69430df6"
    },
    {
      "constant": true,
      "inputs": [],
      "name": "GetTime",
      "outputs": [
        {
          "name": "",
          "type": "uint256"
        }
      ],
      "payable": false,
      "stateMutability": "view",
      "type": "function",
      "signature": "0x18c5e502"
    },
    {
      "constant": false,
      "inputs": [
        {
          "name": "cc",
          "type": "string"
        },
        {
          "name": "randomness",
          "type": "bytes"
        },
        {
          "name": "msgHash",
          "type": "bytes32"
        },
        {
          "name": "_v",
          "type": "uint8"
        },
        {
          "name": "_r",
          "type": "bytes32"
        },
        {
          "name": "_s",
          "type": "bytes32"
        },
        {
          "name": "content",
          "type": "string"
        },
        {
          "name": "time",
          "type": "uint256"
        }
      ],
      "name": "Claim",
      "outputs": [],
      "payable": true,
      "stateMutability": "payable",
      "type": "function",
      "signature": "0x2c482856"
    }
  ],
  "bytecode": "0x6080604052611319806100136000396000f3fe60806040526004361061006d576000357c0100000000000000000000000000000000000000000000000000000000900463ffffffff16806318c5e502146100725780632c4828561461009d578063488cc9db146102bc57806369430df61461042e5780639e8a51bb146105a1575b600080fd5b34801561007e57600080fd5b506100876105dc565b6040518082815260200191505060405180910390f35b6102ba60048036036101008110156100b457600080fd5b81019080803590602001906401000000008111156100d157600080fd5b8201836020820111156100e357600080fd5b8035906020019184600183028401116401000000008311171561010557600080fd5b91908080601f016020809104026020016040519081016040528093929190818152602001838380828437600081840152601f19601f8201169050808301925050505050505091929192908035906020019064010000000081111561016857600080fd5b82018360208201111561017a57600080fd5b8035906020019184600183028401116401000000008311171561019c57600080fd5b91908080601f016020809104026020016040519081016040528093929190818152602001838380828437600081840152601f19601f82011690508083019250505050505050919291929080359060200190929190803560ff16906020019092919080359060200190929190803590602001909291908035906020019064010000000081111561022a57600080fd5b82018360208201111561023c57600080fd5b8035906020019184600183028401116401000000008311171561025e57600080fd5b91908080601f016020809104026020016040519081016040528093929190818152602001838380828437600081840152601f19601f820116905080830192505050505050509192919290803590602001909291905050506105e4565b005b61042c600480360360608110156102d257600080fd5b81019080803573ffffffffffffffffffffffffffffffffffffffff1690602001909291908035906020019064010000000081111561030f57600080fd5b82018360208201111561032157600080fd5b8035906020019184600183028401116401000000008311171561034357600080fd5b91908080601f016020809104026020016040519081016040528093929190818152602001838380828437600081840152601f19601f820116905080830192505050505050509192919290803590602001906401000000008111156103a657600080fd5b8201836020820111156103b857600080fd5b803590602001918460018302840111640100000000831117156103da57600080fd5b91908080601f016020809104026020016040519081016040528093929190818152602001838380828437600081840152601f19601f820116905080830192505050505050509192919290505050610e71565b005b34801561043a57600080fd5b5061058b6004803603604081101561045157600080fd5b810190808035906020019064010000000081111561046e57600080fd5b82018360208201111561048057600080fd5b803590602001918460018302840111640100000000831117156104a257600080fd5b91908080601f016020809104026020016040519081016040528093929190818152602001838380828437600081840152601f19601f8201169050808301925050505050505091929192908035906020019064010000000081111561050557600080fd5b82018360208201111561051757600080fd5b8035906020019184600183028401116401000000008311171561053957600080fd5b91908080601f016020809104026020016040519081016040528093929190818152602001838380828437600081840152601f19601f820116905080830192505050505050509192919290505050610f6b565b6040518082815260200191505060405180910390f35b3480156105ad57600080fd5b506105da600480360360208110156105c457600080fd5b810190808035906020019092919050505061102e565b005b600042905090565b600061069f888a336040516020018083805190602001908083835b60208310151561062457805182526020820191506020810190506020830392506105ff565b6001836020036101000a0380198251168184511680821785525050505050509050018273ffffffffffffffffffffffffffffffffffffffff1673ffffffffffffffffffffffffffffffffffffffff166c0100000000000000000000000002815260140192505050604051602081830303815290604052611083565b9050600073ffffffffffffffffffffffffffffffffffffffff166005600083815260200190815260200160002060009054906101000a900473ffffffffffffffffffffffffffffffffffffffff1673ffffffffffffffffffffffffffffffffffffffff16141515156107c5576040517f08c379a00000000000000000000000000000000000000000000000000000000081526004018080602001828103825260568152602001807f412070726576696f757320636f6d6d69746d656e7420666f722074686973206381526020017f616c6c696e67206361726420776173206e6f7420666f756e642e20446964207981526020017f6f752072656d656d62657220746f20436f6d6d69743f0000000000000000000081525060600191505060405180910390fd5b7fffffffffffffffffffffffffffffffffffffffffffffffffffffffffffffffff73__StringUtils___________________________638a0807b78560036040518363ffffffff167c0100000000000000000000000000000000000000000000000000000000028152600401808060200180602001838103835285818151815260200191508051906020019080838360005b83811015610872578082015181840152602081019050610857565b50505050905090810190601f16801561089f5780820380516001836020036101000a031916815260200191505b508381038252848181546001816001161561010002031660029004815260200191508054600181600116156101000203166002900480156109215780601f106108f657610100808354040283529160200191610921565b820191906000526020600020905b81548152906001019060200180831161090457829003601f168201915b505094505050505060206040518083038186803b15801561094157600080fd5b505af4158015610955573d6000803e3d6000fd5b505050506040513d602081101561096b57600080fd5b810190808051906020019092919050505014151515610a18576040517f08c379a000000000000000000000000000000000000000000000000000000000815260040180806020018281038252602e8152602001807f53746174656d656e742073686f756c642061707065617220696e20746865207781526020017f65627061676520636f6e74656e7400000000000000000000000000000000000081525060400191505060405180910390fd5b7fffffffffffffffffffffffffffffffffffffffffffffffffffffffffffffffff73__StringUtils___________________________638a0807b7858c6040518363ffffffff167c0100000000000000000000000000000000000000000000000000000000028152600401808060200180602001838103835285818151815260200191508051906020019080838360005b83811015610ac4578082015181840152602081019050610aa9565b50505050905090810190601f168015610af15780820380516001836020036101000a031916815260200191505b50838103825284818151815260200191508051906020019080838360005b83811015610b2a578082015181840152602081019050610b0f565b50505050905090810190601f168015610b575780820380516001836020036101000a031916815260200191505b5094505050505060206040518083038186803b158015610b7657600080fd5b505af4158015610b8a573d6000803e3d6000fd5b505050506040513d6020811015610ba057600080fd5b810190808051906020019092919050505014151515610c4d576040517f08c379a000000000000000000000000000000000000000000000000000000000815260040180806020018281038252603a8152602001807f43616c6c696e6720636172642073686f756c642062652074686520707265616d81526020017f626c65206f6620746865207765627061676520636f6e74656e7400000000000081525060400191505060405180910390fd5b60045482111515610cc6576040517f08c379a000000000000000000000000000000000000000000000000000000000815260040180806020018281038252601b8152602001807f436f6e7472616374206861736e2774207374617274656420796574000000000081525060200191505060405180910390fd5b600060018888888860405160008152602001604052604051808581526020018460ff1660ff1681526020018381526020018281526020019450505050506020604051602081039080840390855afa158015610d25573d6000803e3d6000fd5b505050602060405103519050600160009054906101000a900473ffffffffffffffffffffffffffffffffffffffff1673ffffffffffffffffffffffffffffffffffffffff168173ffffffffffffffffffffffffffffffffffffffff16141515610e1c576040517f08c379a00000000000000000000000000000000000000000000000000000000081526004018080602001828103825260348152602001807f5369676e61747572652070617373656420646964206e6f74206d61746368207481526020017f6865207075626c6963206b65792073746f72656400000000000000000000000081525060400191505060405180910390fd5b3373ffffffffffffffffffffffffffffffffffffffff166108fc6000549081150290604051600060405180830381858888f19350505050158015610e64573d6000803e3d6000fd5b5050505050505050505050565b603234111515610ee9576040517f08c379a00000000000000000000000000000000000000000000000000000000081526004018080602001828103825260178152602001807f526577617264206d757374206265206e6f6e2d7a65726f00000000000000000081525060200191505060405180910390fd5b3460008190555082600160006101000a81548173ffffffffffffffffffffffffffffffffffffffff021916908373ffffffffffffffffffffffffffffffffffffffff1602179055508160029080519060200190610f47929190611248565b508060039080519060200190610f5e929190611248565b5042600481905550505050565b60006110268284336040516020018083805190602001908083835b602083101515610fab5780518252602082019150602081019050602083039250610f86565b6001836020036101000a0380198251168184511680821785525050505050509050018273ffffffffffffffffffffffffffffffffffffffff1673ffffffffffffffffffffffffffffffffffffffff166c0100000000000000000000000002815260140192505050604051602081830303815290604052611083565b905092915050565b336005600083815260200190815260200160002060006101000a81548173ffffffffffffffffffffffffffffffffffffffff021916908373ffffffffffffffffffffffffffffffffffffffff16021790555050565b6000806000806040865111156110a25785805190602001209250611129565b600090505b8551811080156110b75750602081105b156110e557600081870151905081601f0360080260020a8102600102841793505080806001019150506110a7565b602090505b8551811080156110fa5750604081105b1561112857600081870151905081603f0360080260020a8102600102831792505080806001019150506110ea565b5b60007f3636363636363636363636363636363636363636363636363636363636363636600102905060007f5c5c5c5c5c5c5c5c5c5c5c5c5c5c5c5c5c5c5c5c5c5c5c5c5c5c5c5c5c5c5c5c60010290508481188482188684188685188a6040516020018084815260200183815260200182805190602001908083835b6020831015156111ca57805182526020820191506020810190506020830392506111a5565b6001836020036101000a038019825116818451168082178552505050505050905001935050505060405160208183030381529060405280519060200120604051602001808481526020018381526020018281526020019350505050604051602081830303815290604052805190602001209550505050505092915050565b828054600181600116156101000203166002900490600052602060002090601f016020900481019282601f1061128957805160ff19168380011785556112b7565b828001600101855582156112b7579182015b828111156112b657825182559160200191906001019061129b565b5b5090506112c491906112c8565b5090565b6112ea91905b808211156112e65760008160009055506001016112ce565b5090565b9056fea165627a7a723058208f6c6d86db763aac6cddc9d7b95b166ff4bbd238a5437828760b942fc495ae650029",
  "source": "pragma solidity >=0.4.24 <0.6.0;\r\n\r\n//Library of String functions, used for indexOf function to search for substrings in the website content\r\nimport \"./StringUtils.sol\";\r\n\r\n/**\r\n * This contract is meant to commission the defacement of a target website with a desired statement.\r\n * By committing to the defacement and showing proof of the crime, the perpetrator of the crime\r\n * will receive the reward placed by the contractor.\r\n*/\r\ncontract SiteDeface{\r\n    uint256 _reward; // Crime payout\r\n    address _pk;    //Public key of the website, assumed to be an Ethereum address for proof-of-concept\r\n    string _url;    //URL of the target webite\r\n    string _stmt;   //Desired statement to appear on the defaced website\r\n    uint t_start;   // Time that the contract is initialized and ready to receive claims\r\n    mapping(bytes32 => address) vcc; //Stores a given commitment with the sender to prove \r\n                                     //that the perpetrator committed to the crime before claiming\r\n\r\n    constructor() public payable{\r\n    }\r\n\r\n    /**\r\n     *  Initializes the contract by storing the details of the crime\r\n     * \r\n     * msg.value - the money passed to the contract to serve as the payout on a successful Claim\r\n     * pk - the public key of the website to deface\r\n     * url - the URL of the website to deface\r\n     * stmt - the target string to see in the defaced website\r\n     * \r\n     * Assumptions:\r\n     * pk is in the same format as Ethereum addresses(ECDSA secp256k1)\r\n     * \r\n     */\r\n    function Init (address pk, string memory url, string memory stmt ) public payable {\r\n        //\r\n         require(msg.value > 50, \"Reward must be non-zero\");\r\n        _reward = msg.value;\r\n        _pk = pk;\r\n        _url = url;\r\n        _stmt = stmt;\r\n        t_start = now;\r\n    }\r\n    \r\n    /**\r\n     *  Store the commitment for the current perpetrator\r\n     *  This commitment must match the details in Claim later on \r\n     * \r\n     * vcc_i - the commitment for the crime, should be the output of MakeVCC\r\n     */\r\n    function Commit(bytes32 vcc_i) public  {\r\n      \r\n        vcc[vcc_i] = msg.sender; //Associate the commitment with the address of the sender(potential perpetrator)\r\n    }\r\n    \r\n\r\n     /**\r\n     * Helper function to make the commitment for the perpetrator. Automatically inserts their address into the commitment\r\n     * for verification later in Claim\r\n     * \r\n     * cc - the calling card for the crime\r\n     * randomness - used to sign the HMAC generated\r\n     */\r\n    function MakeVCC(string memory cc, bytes memory randomness) public view returns (bytes32){\r\n        \r\n        //Return the hmac acting as the \"commit()\" function mentioned in the paper\r\n        return _hmacsha256(randomness, abi.encodePacked(cc, msg.sender));\r\n    }\r\n\r\n    /**\r\n     * Helper function to return the current time as a uint256\r\n     */\r\n    function GetTime() public view returns (uint256){\r\n        \r\n        \r\n        return now;\r\n    }\r\n    \r\n    \r\n    /**\r\n     *  Accepts proof of the defacement crime. Verifies the commitment to the crime and the signature of the website.\r\n     *  Checks to make sure statement and calling card are in the website content. If all conditions are met, pays \r\n     *  out the reward.\r\n     * \r\n     * cc - the calling card for the crime\r\n     * randomness - random bytes to sign the HMAC/commitment\r\n     * msgHash - output hash of the ecsign function ( signature generated off-chain )\r\n     * _v - output parameter of the ecsign function ( signature generated off-chain )\r\n     * _r - output parameter of the ecsign function ( signature generated off-chain )\r\n     * _s - output parameter of the ecsign function ( signature generated off-chain )\r\n     * content - the HTML code of the website\r\n     * time - the time that the defacement was stated to occur at\r\n     * \r\n     * Assumptions:\r\n     * -msgHash, _v, _r, _s are obtained by using the ecsign function on the private key for the store public key _pk\r\n     *          and generated from the tuple/concatenation of (cc,content,url,time)\r\n     * -The paper describes using future functionality to obtain the HTML content directly from the contract.\r\n     *  Due to limitations of the platform, it must be passed in, along with the signature meant to act as a certificate authority signature\r\n     * \r\n     */\r\n    function Claim(string memory cc, bytes memory randomness, bytes32 msgHash, uint8 _v, bytes32 _r, bytes32 _s, string memory content, uint time )  public payable{\r\n        //Submit proof that the website has been defaced. Due to the lack of tools to make Http requests in Solidity, the content and signatures must be passed in.\r\n        // The paper also leaves this as a task for future versions of the platform\r\n        bytes32 claimedVcc = _hmacsha256(randomness, abi.encodePacked(cc, msg.sender));\r\n\r\n        require(vcc[claimedVcc] != address(0), \"A previous commitment for this calling card was not found. Did you remember to Commit?\");\r\n        require(StringUtils.indexOf(content, _stmt) != -1, \"Statement should appear in the webpage content\");\r\n        require(StringUtils.indexOf(content, cc) != -1, \"Calling card should be the preamble of the webpage content\");\r\n        require(time > t_start, \"Contract hasn't started yet\");\r\n\r\n        address recoveredPublicKey = ecrecover(msgHash, _v, _r, _s); //Verify the site's signature matches the public key stored in the contract. For proof-of-concept\r\n                                                                     // an Ethereum public key is used to leverage the built-in ecrecover() function\r\n        \r\n        require(recoveredPublicKey == _pk, \"Signature passed did not match the public key stored\");\r\n\r\n        msg.sender.transfer(_reward); //Send the perpetrator their payment\r\n    }\r\n    \r\n    \r\n    /**\r\n     * HMAC function used to implement the commit() function described in the paper\r\n     * Retrieved from https://ethereum.stackexchange.com/questions/64510/hmac-x-implementation-for-solidity by saman.shahmohamadi\r\n     * \r\n     * key - signing key for the HMAC\r\n     * message - content to sign\r\n     */\r\n    function _hmacsha256(bytes memory key, bytes memory message) internal pure returns (bytes32) {\r\n        bytes32 keyl;\r\n        bytes32 keyr;\r\n        uint i;\r\n        if (key.length > 64) {\r\n            keyl = keccak256(key);\r\n        } else {\r\n            for (i = 0; i < key.length && i < 32; i++){\r\n                uint keyAtIndex;\r\n                assembly {\r\n                    keyAtIndex := mload(add(key, i))\r\n                }\r\n                keyl |= bytes32(keyAtIndex * 2 ** (8 * (31 - i)));\r\n\r\n            }\r\n            for (i = 32; i < key.length && i < 64; i++){\r\n                uint keyAtIndex;\r\n                assembly {\r\n                    keyAtIndex := mload(add(key, i))\r\n                }\r\n                keyr |= bytes32(keyAtIndex * 2 ** (8 * (63 - i)));\r\n\r\n            }\r\n        }\r\n        bytes32 threesix = 0x3636363636363636363636363636363636363636363636363636363636363636;\r\n        bytes32 fivec = 0x5c5c5c5c5c5c5c5c5c5c5c5c5c5c5c5c5c5c5c5c5c5c5c5c5c5c5c5c5c5c5c5c;\r\n        return keccak256(abi.encodePacked(fivec ^ keyl, fivec ^ keyr, keccak256(abi.encodePacked(threesix ^ keyl, threesix ^ keyr, message))));\r\n    }\r\n}",
  "sourcePath": "D:/Downloads/SeminarProject/SeminarProject/code/blockchain/contracts/SiteDeface.sol",
  "compiler": {
    "name": "solc",
    "version": "0.5.0+commit.1d4f565a.Emscripten.clang"
  },
  "schemaVersion": "3.0.8",
  "updatedAt": "2019-05-07T02:45:15.705Z",
  "devdoc": {
    "methods": {}
  },
  "userdoc": {
    "methods": {
      "Claim(string,bytes,bytes32,uint8,bytes32,bytes32,string,uint256)": {
        "notice": "Accepts proof of the defacement crime. Verifies the commitment to the crime and the signature of the website.\r Checks to make sure statement and calling card are in the website content. If all conditions are met, pays \r out the reward.\r \r cc - the calling card for the crime\r randomness - random bytes to sign the HMAC/commitment\r msgHash - output hash of the ecsign function ( signature generated off-chain )\r _v - output parameter of the ecsign function ( signature generated off-chain )\r _r - output parameter of the ecsign function ( signature generated off-chain )\r _s - output parameter of the ecsign function ( signature generated off-chain )\r content - the HTML code of the website\r time - the time that the defacement was stated to occur at\r \r Assumptions:\r -msgHash, _v, _r, _s are obtained by using the ecsign function on the private key for the store public key _pk\r         and generated from the tuple/concatenation of (cc,content,url,time)\r -The paper describes using future functionality to obtain the HTML content directly from the contract.\r Due to limitations of the platform, it must be passed in, along with the signature meant to act as a certificate authority signature\r \r"
      },
      "Commit(bytes32)": {
        "notice": "Store the commitment for the current perpetrator\r This commitment must match the details in Claim later on \r \r vcc_i - the commitment for the crime, should be the output of MakeVCC\r"
      },
      "GetTime()": {
        "notice": "Helper function to return the current time as a uint256\r"
      },
      "Init(address,string,string)": {
        "notice": "Initializes the contract by storing the details of the crime\r \r msg.value - the money passed to the contract to serve as the payout on a successful Claim\r pk - the public key of the website to deface\r url - the URL of the website to deface\r stmt - the target string to see in the defaced website\r \r Assumptions:\r pk is in the same format as Ethereum addresses(ECDSA secp256k1)\r \r"
      },
      "MakeVCC(string,bytes)": {
        "notice": "Helper function to make the commitment for the perpetrator. Automatically inserts their address into the commitment\r for verification later in Claim\r \r cc - the calling card for the crime\r randomness - used to sign the HMAC generated\r"
      }
    },
    "notice": "This contract is meant to commission the defacement of a target website with a desired statement.\r By committing to the defacement and showing proof of the crime, the perpetrator of the crime\r will receive the reward placed by the contractor.\r"
  }
}